:100000000C9479000C94E7010C9496000C949600E3
:100010000C9496000C9496000C9496000C94960008
:100020000C9496000C9496000C9496000C949600F8
:100030000C9496000C9496000C9496000C949600E8
:100040000C9496000C9496000C9496000C949600D8
:100050000C9496000C9496000C9496000C949600C8
:100060000C9496000C9496000403090412036F008C
:1000700062006400650076002E00610074000C03CD
:100080004D006F0075007300650012011001000043
:100090000008C016E8030001010200010902220065
:1000A000010100800A090400000103000000092189
:1000B00001010001223400070581030800640501E5
:1000C0000902A1010901A10005091901290315006F
:1000D00025019503750181029501750581030501CF
:1000E0000930093109381581257F75089503810686
:1000F000C0C011241FBECFEFD8E0DEBFCDBF11E0DE
:10010000A0E0B1E0E0E3F8E002C005900D92A2307B
:10011000B107D9F711E0A2E0B1E001C01D92AE3302
:10012000B107E1F70E94D7030C9416040C94000069
:10013000E9E6F0E0808182608083E89A8BE4809336
:1001400014018AE58093130108951F93CF93DF93E1
:1001500090912401935097FDA2C02091210180919C
:1001600020018D3209F099C0983009F096C0CCE09A
:10017000D0E0C21BD109C85DDE4F83EC809308013B
:100180008AE580930001109202018881807629F02F
:10019000CE010E940803282F77C09A811092110186
:1001A0008981882321F41092120122E067C08530F2
:1001B00019F49093250161C0863009F04AC08B8103
:1001C000813019F48AE890E01BC0823041F48CE958
:1001D00090E0909323018093220122E236C0833085
:1001E000F9F48A81882341F488E690E09093230112
:1001F0008093220124E029C0813041F48CE690E014
:10020000909323018093220122E11FC08230E1F408
:100210008EE790E090932301809322012CE015C09B
:10022000813241F48EEA90E0909323018093220181
:1002300029E00BC0823241F48EEB90E090932301D1
:100240008093220124E301C020E080E48093020136
:100250001BC0883021F421E087E291E011C0893091
:1002600019F49093270109C08A3011F421E006C0E7
:100270008B3019F48BE48093140120E081E191E04C
:1002800090932301809322018F81882321F48E8112
:10029000821708F4282F20930101109224018091E5
:1002A000000184FF4AC0809101018F3F09F445C0DD
:1002B000182F893008F018E0811B8093010180918C
:1002C000080198E8892780930801112341F12091C2
:1002D0002201309123018091020186FF0DC0A9E027
:1002E000B1E080E090E0F901E80FF91FE491ED93AF
:1002F00001961817C1F708C0912FD901E9E0F1E084
:100300008D9181939150E1F71150812F90E01F5F03
:100310000196820F931F909323018093220189E01D
:1003200091E0612F0E94E301612F6C5F6C3019F046
:100330008FEF809301016093000194E189B1847192
:1003400031F49150D9F71092250110921F01DF91DD
:10035000CF911F9108951F93DC01162F80911301F7
:1003600084FF07C08091140198E8892780931401C5
:1003700003C08AE580931301912FE5E1F1E08D91AF
:10038000819391501916DCF385E191E0612F0E9471
:10039000E3011C5F109313011F910895A82FB92F3B
:1003A00080E090E041E050EA609530E009C02D9196
:1003B00082279795879510F084279527305EC8F39C
:1003C0006F5FA8F30895EADF8D939D930895CF930F
:1003D000CFB7CF93DF93C3954C9BE9F74C9B0BC0F2
:1003E0004C9B09C04C9B07C04C9B05C04C9B03C059
:1003F0004C9B01C08BC06F93C0912101DD27C85D6C
:10040000DE4F2F9365E54C9B03C02F916F91E6CF94
:100410000F931F934F9320E040E15F9309B1047164
:1004200004FB27F93F9350E03BE039C0147140646E
:100430002F77012F5F5F1EC0406819B114712F77AD
:1004400052501FC0406409B12F770471D1F15F5F32
:1004500000C023C0406219B12F77147191F15F5F22
:1004600000C025C004711027515012F45D5F0000D8
:10047000115027952C3F19B1C8F61471012701506E
:1004800027952C3FC8F64227499309B104711027DC
:100490004F73115027952C3FA8F64695469519B1F4
:1004A000147179F00127015027952C3F98F66B5A6B
:1004B00060F3315009B1B0F600C011E01CBB002759
:1004C00019C03B503195C31BD04011E01CBB0881C3
:1004D000033C09F10B34F9F020911F011981110F30
:1004E0001213EDCF4A81441F093651F10D3211F03C
:1004F000013E29F7009326013F915F914F911F9193
:100500000F912F916F91CCB3C0FD65CFDF91CF914B
:10051000CFBFCF91189520912601222369F3109126
:100520002401112391F5343092F13093240120936A
:100530002001109121013BE0311B3093210127C0A4
:100540000091240101300CF50AE54F7049F4309117
:10055000000134FD1DC000930001C8E0D1E01CC0C3
:100560003091130134FD14C000931301C4E1D1E0B4
:1005700013C0052710E000C000000BB91AC0052702
:1005800010E0221F1DC010E021C04AE502C032ED7C
:10059000432FC4E1D0E032E01AB114615C9A0BB190
:1005A0001AB954E120E865E320FF05270BB9279528
:1005B00017951C3FF0F66695B8F7B1F720FF0527B1
:1005C0000BB9279517951C3FD0F62795179517FF60
:1005D000052700001C3F0BB9B0F629913A9519F791
:1005E0000B7E10912501110FC651D0400BB911F0AF
:1005F00010931F0111E01CBB00611AB11B7E402F3C
:100600004B7E54E05A95F1F70BB91AB94BB974CF38
:10061000FC01808180768032E1F48181813041F477
:1006200083E091E0909323018093220184E0089578
:10063000823041F487E091E090932301809322017E
:1006400081E008958A3029F483818093070180E056
:10065000089580E00895399A409A8F7727E030E036
:10066000482F552747FD509565E04098399ACA01B3
:10067000022E02C0959587950A94E2F780FF02C08A
:10068000419A01C04198862F8A95F1F7409A862FAA
:100690008A95F1F7215030408FEF2F3F380729F727
:1006A00080EE91E00197F1F73998419A40E027E018
:1006B00030E055E061E070E04098852F8A95F1F7D1
:1006C000409A852F8A95F1F7319B08C0CB01022E05
:1006D00002C0880F991F0A94E2F7482B215030403E
:1006E0008FEF2F3F380741F7842F0895399A409AAA
:1006F000806827E030E075E0482F552747FD50958A
:100700004098872F8A95F1F7CA01022E02C095956D
:1007100087950A94E2F780FF02C0419A01C0419890
:10072000872F8A95F1F7409A872F8A95F1F7215004
:1007300030408FEF2F3F380719F727E030E0772759
:1007400067FD709545E04098CB01022E02C095955B
:1007500087950A94E2F780FF02C0419A01C0419850
:10076000842F8A95F1F7409A842F8A95F1F72150CA
:1007700030408FEF2F3F380731F70895409A80EAD5
:100780009FE0FC013197F1F740980197F1F7409A0B
:1007900088EE93E020E931E0F9013197F1F7019714
:1007A000D9F70895389A399A409A419A08952EE0D7
:1007B00088E190E00FB6F894A895809360000FBE92
:1007C000209360000E94D20388EE93E020E931E09C
:1007D000F9013197F1F70197D9F70E94BE030E9402
:1007E0009800549A20E040EA5FE004C0A895CA014E
:1007F0000197F1F72150D1F754987894A8950E9469
:10080000A5008091130184FFF9CF83E40E942B039C
:1008100081958093040182E40E942B03809305015B
:1008200083E091E064E00E94AB01E8CFF894FFCF51
:020830005AFF6D
:00000001FF
